{
  "address": "0xa7841B77F373a1fFF64719fC15e1B256681a5FDe",
  "abi": [
    {
      "inputs": [
        {
          "internalType": "address",
          "name": "fundingRecipientAddress",
          "type": "address"
        }
      ],
      "stateMutability": "nonpayable",
      "type": "constructor"
    },
    {
      "inputs": [],
      "name": "AlreadyCompleted",
      "type": "error"
    },
    {
      "inputs": [],
      "name": "NotOpenToWithdraw",
      "type": "error"
    },
    {
      "inputs": [
        {
          "internalType": "uint256",
          "name": "deadline",
          "type": "uint256"
        },
        {
          "internalType": "uint256",
          "name": "currentTimestamp",
          "type": "uint256"
        }
      ],
      "name": "TooEarly",
      "type": "error"
    },
    {
      "inputs": [
        {
          "internalType": "address",
          "name": "to",
          "type": "address"
        },
        {
          "internalType": "uint256",
          "name": "amount",
          "type": "uint256"
        }
      ],
      "name": "WithdrawTransferFailed",
      "type": "error"
    },
    {
      "anonymous": false,
      "inputs": [
        {
          "indexed": false,
          "internalType": "address",
          "name": "",
          "type": "address"
        },
        {
          "indexed": false,
          "internalType": "uint256",
          "name": "",
          "type": "uint256"
        }
      ],
      "name": "Contribution",
      "type": "event"
    },
    {
      "inputs": [
        {
          "internalType": "address",
          "name": "",
          "type": "address"
        }
      ],
      "name": "balances",
      "outputs": [
        {
          "internalType": "uint256",
          "name": "",
          "type": "uint256"
        }
      ],
      "stateMutability": "view",
      "type": "function"
    },
    {
      "inputs": [],
      "name": "contribute",
      "outputs": [],
      "stateMutability": "payable",
      "type": "function"
    },
    {
      "inputs": [],
      "name": "deadline",
      "outputs": [
        {
          "internalType": "uint256",
          "name": "",
          "type": "uint256"
        }
      ],
      "stateMutability": "view",
      "type": "function"
    },
    {
      "inputs": [],
      "name": "execute",
      "outputs": [],
      "stateMutability": "nonpayable",
      "type": "function"
    },
    {
      "inputs": [],
      "name": "fundingRecipient",
      "outputs": [
        {
          "internalType": "contract FundingRecipient",
          "name": "",
          "type": "address"
        }
      ],
      "stateMutability": "view",
      "type": "function"
    },
    {
      "inputs": [],
      "name": "openToWithdraw",
      "outputs": [
        {
          "internalType": "bool",
          "name": "",
          "type": "bool"
        }
      ],
      "stateMutability": "view",
      "type": "function"
    },
    {
      "inputs": [],
      "name": "threshold",
      "outputs": [
        {
          "internalType": "uint256",
          "name": "",
          "type": "uint256"
        }
      ],
      "stateMutability": "view",
      "type": "function"
    },
    {
      "inputs": [],
      "name": "timeLeft",
      "outputs": [
        {
          "internalType": "uint256",
          "name": "",
          "type": "uint256"
        }
      ],
      "stateMutability": "view",
      "type": "function"
    },
    {
      "inputs": [],
      "name": "withdraw",
      "outputs": [],
      "stateMutability": "nonpayable",
      "type": "function"
    },
    {
      "stateMutability": "payable",
      "type": "receive"
    }
  ],
  "transactionHash": "0xd892c11b4df6317d663c728416dffa4daf11486eb2a2ad68ef05de6e2b79ac13",
  "args": [
    "0xa35a663668D13B54305D8048331485c3aCa223E2"
  ],
  "numDeployments": 1,
  "solcInputHash": "2b1802ada6e7b9ac330339996bcbffe7",
  "bytecode": "0x608060405261000f42601e610062565b60025534801561001e57600080fd5b5060405161070538038061070583398101604081905261003d91610089565b600180546001600160a01b0319166001600160a01b03929092169190911790556100b9565b8082018082111561008357634e487b7160e01b600052601160045260246000fd5b92915050565b60006020828403121561009b57600080fd5b81516001600160a01b03811681146100b257600080fd5b9392505050565b61063d806100c86000396000f3fe60806040526004361061008a5760003560e01c80633ccfd60b116100595780633ccfd60b1461014157806342cde4e8146101565780636146195414610172578063763418a714610187578063d7bb99ba146101b857600080fd5b80631300a6d11461009e5780631bb534ba146100c657806327e235e3146100fe57806329dcb0cf1461012b57600080fd5b36610099576100976101bc565b005b600080fd5b3480156100aa57600080fd5b506100b36102af565b6040519081526020015b60405180910390f35b3480156100d257600080fd5b506001546100e6906001600160a01b031681565b6040516001600160a01b0390911681526020016100bd565b34801561010a57600080fd5b506100b3610119366004610573565b60006020819052908152604090205481565b34801561013757600080fd5b506100b360025481565b34801561014d57600080fd5b506100976102d3565b34801561016257600080fd5b506100b3670de0b6b3a764000081565b34801561017e57600080fd5b50610097610420565b34801561019357600080fd5b506001546101a890600160a01b900460ff1681565b60405190151581526020016100bd565b6100975b600160009054906101000a90046001600160a01b03166001600160a01b0316639d9a7fe96040518163ffffffff1660e01b8152600401602060405180830381865afa15801561020f573d6000803e3d6000fd5b505050506040513d601f19601f8201168201806040525081019061023391906105a3565b156102515760405163195332a560e01b815260040160405180910390fd5b33600090815260208190526040812080543492906102709084906105db565b9091555050604080513381523460208201527f4d154d4aae216bed6d0926db77c00df2b57c6b5ba4eee05775de20facede3a7b910160405180910390a1565b600060025442106102c05750600090565b426002546102ce91906105f4565b905090565b600160009054906101000a90046001600160a01b03166001600160a01b0316639d9a7fe96040518163ffffffff1660e01b8152600401602060405180830381865afa158015610326573d6000803e3d6000fd5b505050506040513d601f19601f8201168201806040525081019061034a91906105a3565b156103685760405163195332a560e01b815260040160405180910390fd5b600154600160a01b900460ff166103925760405163a6b765a760e01b815260040160405180910390fd5b33600081815260208190526040808220805490839055905190929083908381818185875af1925050503d80600081146103e7576040519150601f19603f3d011682016040523d82523d6000602084013e6103ec565b606091505b505090508061041c5760405163dd2c9e2f60e01b8152336004820152602481018390526044015b60405180910390fd5b5050565b600160009054906101000a90046001600160a01b03166001600160a01b0316639d9a7fe96040518163ffffffff1660e01b8152600401602060405180830381865afa158015610473573d6000803e3d6000fd5b505050506040513d601f19601f8201168201806040525081019061049791906105a3565b156104b55760405163195332a560e01b815260040160405180910390fd5b60025442116104e45760025460405163e58369d160e01b81526004810191909152426024820152604401610413565b670de0b6b3a7640000471061055e57600160009054906101000a90046001600160a01b03166001600160a01b031663522e1177476040518263ffffffff1660e01b81526004016000604051808303818588803b15801561054357600080fd5b505af1158015610557573d6000803e3d6000fd5b5050505050565b6001805460ff60a01b1916600160a01b179055565b60006020828403121561058557600080fd5b81356001600160a01b038116811461059c57600080fd5b9392505050565b6000602082840312156105b557600080fd5b8151801515811461059c57600080fd5b634e487b7160e01b600052601160045260246000fd5b808201808211156105ee576105ee6105c5565b92915050565b818103818111156105ee576105ee6105c556fea26469706673582212202b33acf2b14c64f2645921defa2a85896c46093d00d5087308ae42fb96d94cb964736f6c63430008140033",
  "devdoc": {
    "kind": "dev",
    "methods": {},
    "version": 1
  },
  "userdoc": {
    "errors": {
      "NotOpenToWithdraw()": [
        {
          "notice": "Errors //////"
        }
      ]
    },
    "events": {
      "Contribution(address,uint256)": {
        "notice": "Events /////"
      }
    },
    "kind": "user",
    "methods": {
      "constructor": {
        "notice": "Constructor ///"
      },
      "contribute()": {
        "notice": "Functions /////"
      },
      "fundingRecipient()": {
        "notice": "State Variables //"
      },
      "timeLeft()": {
        "notice": "View Functions /////"
      }
    },
    "version": 1
  },
  "storageLayout": {
    "storage": [
      {
        "astId": 7,
        "contract": "contracts/CrowdFund.sol:CrowdFund",
        "label": "balances",
        "offset": 0,
        "slot": "0",
        "type": "t_mapping(t_address,t_uint256)"
      },
      {
        "astId": 22,
        "contract": "contracts/CrowdFund.sol:CrowdFund",
        "label": "fundingRecipient",
        "offset": 0,
        "slot": "1",
        "type": "t_contract(FundingRecipient)221"
      },
      {
        "astId": 24,
        "contract": "contracts/CrowdFund.sol:CrowdFund",
        "label": "openToWithdraw",
        "offset": 20,
        "slot": "1",
        "type": "t_bool"
      },
      {
        "astId": 30,
        "contract": "contracts/CrowdFund.sol:CrowdFund",
        "label": "deadline",
        "offset": 0,
        "slot": "2",
        "type": "t_uint256"
      }
    ],
    "types": {
      "t_address": {
        "encoding": "inplace",
        "label": "address",
        "numberOfBytes": "20"
      },
      "t_bool": {
        "encoding": "inplace",
        "label": "bool",
        "numberOfBytes": "1"
      },
      "t_contract(FundingRecipient)221": {
        "encoding": "inplace",
        "label": "contract FundingRecipient",
        "numberOfBytes": "20"
      },
      "t_mapping(t_address,t_uint256)": {
        "encoding": "mapping",
        "key": "t_address",
        "label": "mapping(address => uint256)",
        "numberOfBytes": "32",
        "value": "t_uint256"
      },
      "t_uint256": {
        "encoding": "inplace",
        "label": "uint256",
        "numberOfBytes": "32"
      }
    }
  }
}