{
  "address": "0xa35a663668D13B54305D8048331485c3aCa223E2",
  "abi": [
    {
      "inputs": [],
      "name": "complete",
      "outputs": [],
      "stateMutability": "payable",
      "type": "function"
    },
    {
      "inputs": [],
      "name": "completed",
      "outputs": [
        {
          "internalType": "bool",
          "name": "",
          "type": "bool"
        }
      ],
      "stateMutability": "view",
      "type": "function"
    }
  ],
  "transactionHash": "0xfcb6629d400eebb627e646e7417a0cac0f75d5f9d4c7bf05226557023d68004e",
  "args": [],
  "numDeployments": 1,
  "solcInputHash": "458d1396e5cbe5b8f0626cefc89ad3a7",
  "bytecode": "0x6080604052348015600f57600080fd5b5060a08061001e6000396000f3fe60806040526004361060265760003560e01c8063522e117714602b5780639d9a7fe914603e575b600080fd5b603c6000805460ff19166001179055565b005b348015604957600080fd5b5060005460569060ff1681565b604051901515815260200160405180910390f3fea2646970667358221220db8e4d450c3ce702917ec87bbf961a466fe7b3581202297048bd7b39e9b649e064736f6c63430008140033",
  "devdoc": {
    "kind": "dev",
    "methods": {},
    "version": 1
  },
  "userdoc": {
    "kind": "user",
    "methods": {},
    "version": 1
  },
  "storageLayout": {
    "storage": [
      {
        "astId": 56,
        "contract": "contracts/FundingRecipient.sol:FundingRecipient",
        "label": "completed",
        "offset": 0,
        "slot": "0",
        "type": "t_bool"
      }
    ],
    "types": {
      "t_bool": {
        "encoding": "inplace",
        "label": "bool",
        "numberOfBytes": "1"
      }
    }
  }
}